{
  "_format": "hh-sol-artifact-1",
  "contractName": "BCAServiceToken",
  "sourceName": "contracts/BCA_ERC20_nf.sol",
  "abi": [
    {
      "inputs": [
        {
          "internalType": "string",
          "name": "name",
          "type": "string"
        },
        {
          "internalType": "string",
          "name": "symbol",
          "type": "string"
        },
        {
          "internalType": "address",
          "name": "minter",
          "type": "address"
        },
        {
          "internalType": "address",
          "name": "burner",
          "type": "address"
        }
      ],
      "stateMutability": "nonpayable",
      "type": "constructor"
    },
    {
      "inputs": [],
      "name": "AccessControlBadConfirmation",
      "type": "error"
    },
    {
      "inputs": [
        {
          "internalType": "address",
          "name": "account",
          "type": "address"
        },
        {
          "internalType": "bytes32",
          "name": "neededRole",
          "type": "bytes32"
        }
      ],
      "name": "AccessControlUnauthorizedAccount",
      "type": "error"
    },
    {
      "inputs": [
        {
          "internalType": "address",
          "name": "spender",
          "type": "address"
        },
        {
          "internalType": "uint256",
          "name": "allowance",
          "type": "uint256"
        },
        {
          "internalType": "uint256",
          "name": "needed",
          "type": "uint256"
        }
      ],
      "name": "ERC20InsufficientAllowance",
      "type": "error"
    },
    {
      "inputs": [
        {
          "internalType": "address",
          "name": "sender",
          "type": "address"
        },
        {
          "internalType": "uint256",
          "name": "balance",
          "type": "uint256"
        },
        {
          "internalType": "uint256",
          "name": "needed",
          "type": "uint256"
        }
      ],
      "name": "ERC20InsufficientBalance",
      "type": "error"
    },
    {
      "inputs": [
        {
          "internalType": "address",
          "name": "approver",
          "type": "address"
        }
      ],
      "name": "ERC20InvalidApprover",
      "type": "error"
    },
    {
      "inputs": [
        {
          "internalType": "address",
          "name": "receiver",
          "type": "address"
        }
      ],
      "name": "ERC20InvalidReceiver",
      "type": "error"
    },
    {
      "inputs": [
        {
          "internalType": "address",
          "name": "sender",
          "type": "address"
        }
      ],
      "name": "ERC20InvalidSender",
      "type": "error"
    },
    {
      "inputs": [
        {
          "internalType": "address",
          "name": "spender",
          "type": "address"
        }
      ],
      "name": "ERC20InvalidSpender",
      "type": "error"
    },
    {
      "anonymous": false,
      "inputs": [
        {
          "indexed": true,
          "internalType": "address",
          "name": "owner",
          "type": "address"
        },
        {
          "indexed": true,
          "internalType": "address",
          "name": "spender",
          "type": "address"
        },
        {
          "indexed": false,
          "internalType": "uint256",
          "name": "value",
          "type": "uint256"
        }
      ],
      "name": "Approval",
      "type": "event"
    },
    {
      "anonymous": false,
      "inputs": [
        {
          "indexed": true,
          "internalType": "bytes32",
          "name": "role",
          "type": "bytes32"
        },
        {
          "indexed": true,
          "internalType": "bytes32",
          "name": "previousAdminRole",
          "type": "bytes32"
        },
        {
          "indexed": true,
          "internalType": "bytes32",
          "name": "newAdminRole",
          "type": "bytes32"
        }
      ],
      "name": "RoleAdminChanged",
      "type": "event"
    },
    {
      "anonymous": false,
      "inputs": [
        {
          "indexed": true,
          "internalType": "bytes32",
          "name": "role",
          "type": "bytes32"
        },
        {
          "indexed": true,
          "internalType": "address",
          "name": "account",
          "type": "address"
        },
        {
          "indexed": true,
          "internalType": "address",
          "name": "sender",
          "type": "address"
        }
      ],
      "name": "RoleGranted",
      "type": "event"
    },
    {
      "anonymous": false,
      "inputs": [
        {
          "indexed": true,
          "internalType": "bytes32",
          "name": "role",
          "type": "bytes32"
        },
        {
          "indexed": true,
          "internalType": "address",
          "name": "account",
          "type": "address"
        },
        {
          "indexed": true,
          "internalType": "address",
          "name": "sender",
          "type": "address"
        }
      ],
      "name": "RoleRevoked",
      "type": "event"
    },
    {
      "anonymous": false,
      "inputs": [
        {
          "indexed": true,
          "internalType": "address",
          "name": "from",
          "type": "address"
        },
        {
          "indexed": true,
          "internalType": "address",
          "name": "to",
          "type": "address"
        },
        {
          "indexed": false,
          "internalType": "uint256",
          "name": "value",
          "type": "uint256"
        }
      ],
      "name": "Transfer",
      "type": "event"
    },
    {
      "inputs": [],
      "name": "BURNER_ROLE",
      "outputs": [
        {
          "internalType": "bytes32",
          "name": "",
          "type": "bytes32"
        }
      ],
      "stateMutability": "view",
      "type": "function"
    },
    {
      "inputs": [],
      "name": "DEFAULT_ADMIN_ROLE",
      "outputs": [
        {
          "internalType": "bytes32",
          "name": "",
          "type": "bytes32"
        }
      ],
      "stateMutability": "view",
      "type": "function"
    },
    {
      "inputs": [],
      "name": "MINTER_ROLE",
      "outputs": [
        {
          "internalType": "bytes32",
          "name": "",
          "type": "bytes32"
        }
      ],
      "stateMutability": "view",
      "type": "function"
    },
    {
      "inputs": [
        {
          "internalType": "address",
          "name": "owner",
          "type": "address"
        },
        {
          "internalType": "address",
          "name": "spender",
          "type": "address"
        }
      ],
      "name": "allowance",
      "outputs": [
        {
          "internalType": "uint256",
          "name": "",
          "type": "uint256"
        }
      ],
      "stateMutability": "view",
      "type": "function"
    },
    {
      "inputs": [
        {
          "internalType": "address",
          "name": "spender",
          "type": "address"
        },
        {
          "internalType": "uint256",
          "name": "value",
          "type": "uint256"
        }
      ],
      "name": "approve",
      "outputs": [
        {
          "internalType": "bool",
          "name": "",
          "type": "bool"
        }
      ],
      "stateMutability": "nonpayable",
      "type": "function"
    },
    {
      "inputs": [
        {
          "internalType": "address",
          "name": "account",
          "type": "address"
        }
      ],
      "name": "balanceOf",
      "outputs": [
        {
          "internalType": "uint256",
          "name": "",
          "type": "uint256"
        }
      ],
      "stateMutability": "view",
      "type": "function"
    },
    {
      "inputs": [
        {
          "internalType": "address",
          "name": "from",
          "type": "address"
        },
        {
          "internalType": "uint256",
          "name": "amount",
          "type": "uint256"
        }
      ],
      "name": "burn",
      "outputs": [],
      "stateMutability": "nonpayable",
      "type": "function"
    },
    {
      "inputs": [],
      "name": "burnerAddress",
      "outputs": [
        {
          "internalType": "address",
          "name": "",
          "type": "address"
        }
      ],
      "stateMutability": "view",
      "type": "function"
    },
    {
      "inputs": [],
      "name": "decimals",
      "outputs": [
        {
          "internalType": "uint8",
          "name": "",
          "type": "uint8"
        }
      ],
      "stateMutability": "view",
      "type": "function"
    },
    {
      "inputs": [
        {
          "internalType": "bytes32",
          "name": "role",
          "type": "bytes32"
        }
      ],
      "name": "getRoleAdmin",
      "outputs": [
        {
          "internalType": "bytes32",
          "name": "",
          "type": "bytes32"
        }
      ],
      "stateMutability": "view",
      "type": "function"
    },
    {
      "inputs": [
        {
          "internalType": "bytes32",
          "name": "role",
          "type": "bytes32"
        },
        {
          "internalType": "address",
          "name": "account",
          "type": "address"
        }
      ],
      "name": "grantRole",
      "outputs": [],
      "stateMutability": "nonpayable",
      "type": "function"
    },
    {
      "inputs": [
        {
          "internalType": "bytes32",
          "name": "role",
          "type": "bytes32"
        },
        {
          "internalType": "address",
          "name": "account",
          "type": "address"
        }
      ],
      "name": "hasRole",
      "outputs": [
        {
          "internalType": "bool",
          "name": "",
          "type": "bool"
        }
      ],
      "stateMutability": "view",
      "type": "function"
    },
    {
      "inputs": [
        {
          "internalType": "address",
          "name": "to",
          "type": "address"
        },
        {
          "internalType": "uint256",
          "name": "amount",
          "type": "uint256"
        }
      ],
      "name": "mint",
      "outputs": [],
      "stateMutability": "nonpayable",
      "type": "function"
    },
    {
      "inputs": [],
      "name": "minterAddress",
      "outputs": [
        {
          "internalType": "address",
          "name": "",
          "type": "address"
        }
      ],
      "stateMutability": "view",
      "type": "function"
    },
    {
      "inputs": [],
      "name": "name",
      "outputs": [
        {
          "internalType": "string",
          "name": "",
          "type": "string"
        }
      ],
      "stateMutability": "view",
      "type": "function"
    },
    {
      "inputs": [
        {
          "internalType": "bytes32",
          "name": "role",
          "type": "bytes32"
        },
        {
          "internalType": "address",
          "name": "callerConfirmation",
          "type": "address"
        }
      ],
      "name": "renounceRole",
      "outputs": [],
      "stateMutability": "nonpayable",
      "type": "function"
    },
    {
      "inputs": [
        {
          "internalType": "bytes32",
          "name": "role",
          "type": "bytes32"
        },
        {
          "internalType": "address",
          "name": "account",
          "type": "address"
        }
      ],
      "name": "revokeRole",
      "outputs": [],
      "stateMutability": "nonpayable",
      "type": "function"
    },
    {
      "inputs": [],
      "name": "serviceAddress",
      "outputs": [
        {
          "internalType": "address",
          "name": "",
          "type": "address"
        }
      ],
      "stateMutability": "view",
      "type": "function"
    },
    {
      "inputs": [
        {
          "internalType": "address",
          "name": "new_burnerAddress",
          "type": "address"
        }
      ],
      "name": "setBurnerAddress",
      "outputs": [],
      "stateMutability": "nonpayable",
      "type": "function"
    },
    {
      "inputs": [
        {
          "internalType": "address",
          "name": "new_minterAddress",
          "type": "address"
        }
      ],
      "name": "setMinterAddress",
      "outputs": [],
      "stateMutability": "nonpayable",
      "type": "function"
    },
    {
      "inputs": [
        {
          "internalType": "address",
          "name": "new_serviceAddress",
          "type": "address"
        }
      ],
      "name": "setServiceAddress",
      "outputs": [],
      "stateMutability": "nonpayable",
      "type": "function"
    },
    {
      "inputs": [
        {
          "internalType": "bytes4",
          "name": "interfaceId",
          "type": "bytes4"
        }
      ],
      "name": "supportsInterface",
      "outputs": [
        {
          "internalType": "bool",
          "name": "",
          "type": "bool"
        }
      ],
      "stateMutability": "view",
      "type": "function"
    },
    {
      "inputs": [],
      "name": "symbol",
      "outputs": [
        {
          "internalType": "string",
          "name": "",
          "type": "string"
        }
      ],
      "stateMutability": "view",
      "type": "function"
    },
    {
      "inputs": [],
      "name": "totalSupply",
      "outputs": [
        {
          "internalType": "uint256",
          "name": "",
          "type": "uint256"
        }
      ],
      "stateMutability": "view",
      "type": "function"
    },
    {
      "inputs": [
        {
          "internalType": "address",
          "name": "to",
          "type": "address"
        },
        {
          "internalType": "uint256",
          "name": "value",
          "type": "uint256"
        }
      ],
      "name": "transfer",
      "outputs": [
        {
          "internalType": "bool",
          "name": "",
          "type": "bool"
        }
      ],
      "stateMutability": "nonpayable",
      "type": "function"
    },
    {
      "inputs": [
        {
          "internalType": "address",
          "name": "from",
          "type": "address"
        },
        {
          "internalType": "address",
          "name": "to",
          "type": "address"
        },
        {
          "internalType": "uint256",
          "name": "value",
          "type": "uint256"
        }
      ],
      "name": "transferFrom",
      "outputs": [
        {
          "internalType": "bool",
          "name": "",
          "type": "bool"
        }
      ],
      "stateMutability": "nonpayable",
      "type": "function"
    }
  ],
  "bytecode": "0x60806040523480156200001157600080fd5b50604051620015353803806200153583398101604081905262000034916200029c565b83836003620000448382620003bc565b506004620000538282620003bc565b505060068054336001600160a01b031991821681179092556007805482166001600160a01b0387811691909117909155600880549092169085161790556200009f915060009062000104565b50620000cc7f9f2df0fed2c77648de5860a4cc508cd0818c85b8b8a1ab4ceeef8d981c8956a68362000104565b50620000f97f3c11d16cbaffd01df69ce1c404f6340ee057498f5f00246190ea54220576a8488262000104565b505050505062000488565b60008281526005602090815260408083206001600160a01b038516845290915281205460ff16620001ad5760008381526005602090815260408083206001600160a01b03861684529091529020805460ff19166001179055620001643390565b6001600160a01b0316826001600160a01b0316847f2f8788117e7eff1d82e926ec794901d17c78024a50270940304540a733656f0d60405160405180910390a4506001620001b1565b5060005b92915050565b634e487b7160e01b600052604160045260246000fd5b600082601f830112620001df57600080fd5b81516001600160401b0380821115620001fc57620001fc620001b7565b604051601f8301601f19908116603f01168101908282118183101715620002275762000227620001b7565b81604052838152602092508660208588010111156200024557600080fd5b600091505b838210156200026957858201830151818301840152908201906200024a565b6000602085830101528094505050505092915050565b80516001600160a01b03811681146200029757600080fd5b919050565b60008060008060808587031215620002b357600080fd5b84516001600160401b0380821115620002cb57600080fd5b620002d988838901620001cd565b95506020870151915080821115620002f057600080fd5b50620002ff87828801620001cd565b93505062000310604086016200027f565b915062000320606086016200027f565b905092959194509250565b600181811c908216806200034057607f821691505b6020821081036200036157634e487b7160e01b600052602260045260246000fd5b50919050565b601f821115620003b7576000816000526020600020601f850160051c81016020861015620003925750805b601f850160051c820191505b81811015620003b3578281556001016200039e565b5050505b505050565b81516001600160401b03811115620003d857620003d8620001b7565b620003f081620003e984546200032b565b8462000367565b602080601f8311600181146200042857600084156200040f5750858301515b600019600386901b1c1916600185901b178555620003b3565b600085815260208120601f198616915b82811015620004595788860151825594840194600190910190840162000438565b5085821015620004785787850151600019600388901b60f8161c191681555b5050505050600190811b01905550565b61109d80620004986000396000f3fe608060405234801561001057600080fd5b50600436106101ae5760003560e01c80638d5b87b6116100ee578063a3106b9511610097578063d547741f11610071578063d547741f146103df578063dd62ed3e146103f2578063e6293e231461042b578063f6e396401461043e57600080fd5b8063a3106b9514610392578063a9059cbb146103a5578063d5391393146103b857600080fd5b80639dc29fac116100c85780639dc29fac146103645780639df806d614610377578063a217fddf1461038a57600080fd5b80638d5b87b61461031057806391d148541461032357806395d89b411461035c57600080fd5b8063282c51f31161015b57806334d722c91161013557806334d722c91461029657806336568abe146102c157806340c10f19146102d457806370a08231146102e757600080fd5b8063282c51f31461024b5780632f2ff15d14610272578063313ce5671461028757600080fd5b806318160ddd1161018c57806318160ddd1461020357806323b872dd14610215578063248a9ca31461022857600080fd5b806301ffc9a7146101b357806306fdde03146101db578063095ea7b3146101f0575b600080fd5b6101c66101c1366004610e68565b610451565b60405190151581526020015b60405180910390f35b6101e36104ea565b6040516101d29190610eb1565b6101c66101fe366004610f1c565b61057c565b6002545b6040519081526020016101d2565b6101c6610223366004610f46565b610594565b610207610236366004610f82565b60009081526005602052604090206001015490565b6102077f3c11d16cbaffd01df69ce1c404f6340ee057498f5f00246190ea54220576a84881565b610285610280366004610f9b565b6105b8565b005b604051601281526020016101d2565b6007546102a9906001600160a01b031681565b6040516001600160a01b0390911681526020016101d2565b6102856102cf366004610f9b565b6105e3565b6102856102e2366004610f1c565b610634565b6102076102f5366004610fc7565b6001600160a01b031660009081526020819052604090205490565b6006546102a9906001600160a01b031681565b6101c6610331366004610f9b565b60009182526005602090815260408084206001600160a01b0393909316845291905290205460ff1690565b6101e3610668565b610285610372366004610f1c565b610677565b610285610385366004610fc7565b61074d565b610207600081565b6102856103a0366004610fc7565b6107e2565b6101c66103b3366004610f1c565b610877565b6102077f9f2df0fed2c77648de5860a4cc508cd0818c85b8b8a1ab4ceeef8d981c8956a681565b6102856103ed366004610f9b565b610885565b610207610400366004610fe2565b6001600160a01b03918216600090815260016020908152604080832093909416825291909152205490565b6008546102a9906001600160a01b031681565b61028561044c366004610fc7565b6108aa565b60007fffffffff0000000000000000000000000000000000000000000000000000000082167f7965db0b0000000000000000000000000000000000000000000000000000000014806104e457507f01ffc9a7000000000000000000000000000000000000000000000000000000007fffffffff000000000000000000000000000000000000000000000000000000008316145b92915050565b6060600380546104f99061100c565b80601f01602080910402602001604051908101604052809291908181526020018280546105259061100c565b80156105725780601f1061054757610100808354040283529160200191610572565b820191906000526020600020905b81548152906001019060200180831161055557829003601f168201915b5050505050905090565b60003361058a818585610901565b5060019392505050565b6000336105a285828561090e565b6105ad85858561099f565b506001949350505050565b6000828152600560205260409020600101546105d3816109fe565b6105dd8383610a0b565b50505050565b6001600160a01b0381163314610625576040517f6697b23200000000000000000000000000000000000000000000000000000000815260040160405180910390fd5b61062f8282610ab9565b505050565b7f9f2df0fed2c77648de5860a4cc508cd0818c85b8b8a1ab4ceeef8d981c8956a661065e816109fe565b61062f8383610b40565b6060600480546104f99061100c565b7f3c11d16cbaffd01df69ce1c404f6340ee057498f5f00246190ea54220576a8486106a1816109fe565b6006546001600160a01b03848116911614610743576040517f08c379a000000000000000000000000000000000000000000000000000000000815260206004820152602760248201527f4275726e696e67206f6e6c7920616c6c6f776564206f6e20736572766963652060448201527f6163636f756e740000000000000000000000000000000000000000000000000060648201526084015b60405180910390fd5b61062f8383610b7a565b6000610758816109fe565b60085461078f907f3c11d16cbaffd01df69ce1c404f6340ee057498f5f00246190ea54220576a848906001600160a01b0316610ab9565b506008805473ffffffffffffffffffffffffffffffffffffffff19166001600160a01b03841617905561062f7f3c11d16cbaffd01df69ce1c404f6340ee057498f5f00246190ea54220576a84883610a0b565b60006107ed816109fe565b600754610824907f9f2df0fed2c77648de5860a4cc508cd0818c85b8b8a1ab4ceeef8d981c8956a6906001600160a01b0316610ab9565b506007805473ffffffffffffffffffffffffffffffffffffffff19166001600160a01b03841617905561062f7f9f2df0fed2c77648de5860a4cc508cd0818c85b8b8a1ab4ceeef8d981c8956a683610a0b565b60003361058a81858561099f565b6000828152600560205260409020600101546108a0816109fe565b6105dd8383610ab9565b60006108b5816109fe565b6006546108cd906000906001600160a01b0316610ab9565b506006805473ffffffffffffffffffffffffffffffffffffffff19166001600160a01b03841617905561062f600083610a0b565b61062f8383836001610bb0565b6001600160a01b0383811660009081526001602090815260408083209386168352929052205460001981146105dd5781811015610990576040517ffb8f41b20000000000000000000000000000000000000000000000000000000081526001600160a01b0384166004820152602481018290526044810183905260640161073a565b6105dd84848484036000610bb0565b6001600160a01b0383166109c957604051634b637e8f60e11b81526000600482015260240161073a565b6001600160a01b0382166109f35760405163ec442f0560e01b81526000600482015260240161073a565b61062f838383610cb7565b610a088133610dfa565b50565b60008281526005602090815260408083206001600160a01b038516845290915281205460ff16610ab15760008381526005602090815260408083206001600160a01b03861684529091529020805460ff19166001179055610a693390565b6001600160a01b0316826001600160a01b0316847f2f8788117e7eff1d82e926ec794901d17c78024a50270940304540a733656f0d60405160405180910390a45060016104e4565b5060006104e4565b60008281526005602090815260408083206001600160a01b038516845290915281205460ff1615610ab15760008381526005602090815260408083206001600160a01b0386168085529252808320805460ff1916905551339286917ff6391f5c32d9c69d2a47ea670b442974b53935d1edc7fd64eb21e047a839171b9190a45060016104e4565b6001600160a01b038216610b6a5760405163ec442f0560e01b81526000600482015260240161073a565b610b7660008383610cb7565b5050565b6001600160a01b038216610ba457604051634b637e8f60e11b81526000600482015260240161073a565b610b7682600083610cb7565b6001600160a01b038416610bf3576040517fe602df050000000000000000000000000000000000000000000000000000000081526000600482015260240161073a565b6001600160a01b038316610c36576040517f94280d620000000000000000000000000000000000000000000000000000000081526000600482015260240161073a565b6001600160a01b03808516600090815260016020908152604080832093871683529290522082905580156105dd57826001600160a01b0316846001600160a01b03167f8c5be1e5ebec7d5bd14f71427d1e84f3dd0314c0f7b2291e5b200ac8c7c3b92584604051610ca991815260200190565b60405180910390a350505050565b6001600160a01b038316610ce2578060026000828254610cd79190611046565b90915550610d6d9050565b6001600160a01b03831660009081526020819052604090205481811015610d4e576040517fe450d38c0000000000000000000000000000000000000000000000000000000081526001600160a01b0385166004820152602481018290526044810183905260640161073a565b6001600160a01b03841660009081526020819052604090209082900390555b6001600160a01b038216610d8957600280548290039055610da8565b6001600160a01b03821660009081526020819052604090208054820190555b816001600160a01b0316836001600160a01b03167fddf252ad1be2c89b69c2b068fc378daa952ba7f163c4a11628f55a4df523b3ef83604051610ded91815260200190565b60405180910390a3505050565b60008281526005602090815260408083206001600160a01b038516845290915290205460ff16610b76576040517fe2517d3f0000000000000000000000000000000000000000000000000000000081526001600160a01b03821660048201526024810183905260440161073a565b600060208284031215610e7a57600080fd5b81357fffffffff0000000000000000000000000000000000000000000000000000000081168114610eaa57600080fd5b9392505050565b60006020808352835180602085015260005b81811015610edf57858101830151858201604001528201610ec3565b506000604082860101526040601f19601f8301168501019250505092915050565b80356001600160a01b0381168114610f1757600080fd5b919050565b60008060408385031215610f2f57600080fd5b610f3883610f00565b946020939093013593505050565b600080600060608486031215610f5b57600080fd5b610f6484610f00565b9250610f7260208501610f00565b9150604084013590509250925092565b600060208284031215610f9457600080fd5b5035919050565b60008060408385031215610fae57600080fd5b82359150610fbe60208401610f00565b90509250929050565b600060208284031215610fd957600080fd5b610eaa82610f00565b60008060408385031215610ff557600080fd5b610ffe83610f00565b9150610fbe60208401610f00565b600181811c9082168061102057607f821691505b60208210810361104057634e487b7160e01b600052602260045260246000fd5b50919050565b808201808211156104e457634e487b7160e01b600052601160045260246000fdfea2646970667358221220dfc176463da83bc79bdb555993d34677afd1137fdd7c0faff5bed07ae3fc4e9f64736f6c63430008180033",
  "linkReferences": {},
  "deployedLinkReferences": {}
}