{
  "_format": "hh-sol-artifact-1",
  "contractName": "BCAServiceContract",
  "sourceName": "contracts/BCA_Service.sol",
  "abi": [
    {
      "inputs": [
        {
          "internalType": "address",
          "name": "_providerAddress",
          "type": "address"
        },
        {
          "internalType": "address",
          "name": "_tokAddress",
          "type": "address"
        },
        {
          "internalType": "uint256",
          "name": "_dayPrice",
          "type": "uint256"
        }
      ],
      "stateMutability": "nonpayable",
      "type": "constructor"
    },
    {
      "inputs": [
        {
          "internalType": "address",
          "name": "target",
          "type": "address"
        }
      ],
      "name": "AddressEmptyCode",
      "type": "error"
    },
    {
      "inputs": [
        {
          "internalType": "address",
          "name": "account",
          "type": "address"
        }
      ],
      "name": "AddressInsufficientBalance",
      "type": "error"
    },
    {
      "inputs": [],
      "name": "AlreadyStopped",
      "type": "error"
    },
    {
      "inputs": [],
      "name": "AlreadySubscribed",
      "type": "error"
    },
    {
      "inputs": [],
      "name": "FailedInnerCall",
      "type": "error"
    },
    {
      "inputs": [
        {
          "internalType": "uint256",
          "name": "minimumAmount",
          "type": "uint256"
        }
      ],
      "name": "InsufficientAmount",
      "type": "error"
    },
    {
      "inputs": [
        {
          "internalType": "uint256",
          "name": "availableBalance",
          "type": "uint256"
        }
      ],
      "name": "InsufficientBalance",
      "type": "error"
    },
    {
      "inputs": [],
      "name": "NotStarted",
      "type": "error"
    },
    {
      "inputs": [],
      "name": "ReentrancyGuardReentrantCall",
      "type": "error"
    },
    {
      "inputs": [
        {
          "internalType": "address",
          "name": "token",
          "type": "address"
        }
      ],
      "name": "SafeERC20FailedOperation",
      "type": "error"
    },
    {
      "inputs": [],
      "name": "UnAuthorized",
      "type": "error"
    },
    {
      "anonymous": false,
      "inputs": [
        {
          "indexed": false,
          "internalType": "address",
          "name": "user",
          "type": "address"
        },
        {
          "indexed": false,
          "internalType": "uint256",
          "name": "amount",
          "type": "uint256"
        }
      ],
      "name": "DepositMade",
      "type": "event"
    },
    {
      "anonymous": false,
      "inputs": [
        {
          "indexed": false,
          "internalType": "address",
          "name": "recipient",
          "type": "address"
        },
        {
          "indexed": false,
          "internalType": "uint256",
          "name": "amount",
          "type": "uint256"
        }
      ],
      "name": "Retracted",
      "type": "event"
    },
    {
      "anonymous": false,
      "inputs": [
        {
          "indexed": false,
          "internalType": "uint256",
          "name": "ticks",
          "type": "uint256"
        }
      ],
      "name": "ServiceStopped",
      "type": "event"
    },
    {
      "anonymous": false,
      "inputs": [
        {
          "indexed": false,
          "internalType": "address",
          "name": "recipient",
          "type": "address"
        },
        {
          "indexed": false,
          "internalType": "uint256",
          "name": "amount",
          "type": "uint256"
        }
      ],
      "name": "Withdrawn",
      "type": "event"
    },
    {
      "inputs": [],
      "name": "balanceProvider",
      "outputs": [
        {
          "internalType": "uint256",
          "name": "",
          "type": "uint256"
        }
      ],
      "stateMutability": "view",
      "type": "function"
    },
    {
      "inputs": [],
      "name": "balanceUser",
      "outputs": [
        {
          "internalType": "uint256",
          "name": "",
          "type": "uint256"
        }
      ],
      "stateMutability": "view",
      "type": "function"
    },
    {
      "inputs": [],
      "name": "dayPrice",
      "outputs": [
        {
          "internalType": "uint256",
          "name": "",
          "type": "uint256"
        }
      ],
      "stateMutability": "view",
      "type": "function"
    },
    {
      "inputs": [],
      "name": "deposit",
      "outputs": [
        {
          "internalType": "uint256",
          "name": "",
          "type": "uint256"
        }
      ],
      "stateMutability": "view",
      "type": "function"
    },
    {
      "inputs": [],
      "name": "endTime",
      "outputs": [
        {
          "internalType": "uint256",
          "name": "",
          "type": "uint256"
        }
      ],
      "stateMutability": "view",
      "type": "function"
    },
    {
      "inputs": [
        {
          "internalType": "uint256",
          "name": "amount",
          "type": "uint256"
        }
      ],
      "name": "makeDeposit",
      "outputs": [],
      "stateMutability": "nonpayable",
      "type": "function"
    },
    {
      "inputs": [],
      "name": "providerAddress",
      "outputs": [
        {
          "internalType": "address",
          "name": "",
          "type": "address"
        }
      ],
      "stateMutability": "view",
      "type": "function"
    },
    {
      "inputs": [],
      "name": "retracted",
      "outputs": [
        {
          "internalType": "uint256",
          "name": "",
          "type": "uint256"
        }
      ],
      "stateMutability": "view",
      "type": "function"
    },
    {
      "inputs": [],
      "name": "setupFee",
      "outputs": [
        {
          "internalType": "uint256",
          "name": "",
          "type": "uint256"
        }
      ],
      "stateMutability": "view",
      "type": "function"
    },
    {
      "inputs": [],
      "name": "startTime",
      "outputs": [
        {
          "internalType": "uint256",
          "name": "",
          "type": "uint256"
        }
      ],
      "stateMutability": "view",
      "type": "function"
    },
    {
      "inputs": [],
      "name": "stop",
      "outputs": [],
      "stateMutability": "nonpayable",
      "type": "function"
    },
    {
      "inputs": [],
      "name": "tokToken",
      "outputs": [
        {
          "internalType": "contract IERC20",
          "name": "",
          "type": "address"
        }
      ],
      "stateMutability": "view",
      "type": "function"
    },
    {
      "inputs": [],
      "name": "userAddress",
      "outputs": [
        {
          "internalType": "address",
          "name": "",
          "type": "address"
        }
      ],
      "stateMutability": "view",
      "type": "function"
    },
    {
      "inputs": [
        {
          "internalType": "uint256",
          "name": "amount",
          "type": "uint256"
        }
      ],
      "name": "withdrawProvider",
      "outputs": [],
      "stateMutability": "nonpayable",
      "type": "function"
    },
    {
      "inputs": [
        {
          "internalType": "uint256",
          "name": "amount",
          "type": "uint256"
        }
      ],
      "name": "withdrawUser",
      "outputs": [],
      "stateMutability": "nonpayable",
      "type": "function"
    }
  ],
  "bytecode": "0x60e060405234801561001057600080fd5b5060405161100438038061100483398101604081905261002f9161006a565b60016000556001600160a01b0391821660805260a0521660c0526100a6565b80516001600160a01b038116811461006557600080fd5b919050565b60008060006060848603121561007f57600080fd5b6100888461004e565b92506100966020850161004e565b9150604084015190509250925092565b60805160a05160c051610edb6101296000396000818161014001528181610493015281816105b30152610af801526000818161017f015281816102ae015281816102f30152818161052b0152818161062b0152818161080a01526109bd01526000818161021101528181610395015281816106b601526109040152610edb6000f3fe608060405234801561001057600080fd5b50600436106100f55760003560e01c80639cf81fb311610097578063d39f075b11610066578063d39f075b146101dd578063dab70e3c146101e6578063e4128fb3146101f9578063ff1f7f0c1461020c57600080fd5b80639cf81fb3146101aa578063a40b56b9146101bd578063d0e30db0146101cc578063d25120ce146101d557600080fd5b80633197cbb6116100d35780633197cbb614610132578063706e52571461013b578063742c9c8f1461017a57806378e97925146101a157600080fd5b8063059a500c146100fa57806307da68f51461010f578063229edc9e14610117575b600080fd5b61010d610108366004610dc6565b610233565b005b61010d61047b565b61011f610486565b6040519081526020015b60405180910390f35b61011f60045481565b6101627f000000000000000000000000000000000000000000000000000000000000000081565b6040516001600160a01b039091168152602001610129565b61011f7f000000000000000000000000000000000000000000000000000000000000000081565b61011f60035481565b61010d6101b8366004610dc6565b6105a0565b61011f6702c68af0bb14000081565b61011f60015481565b61011f610770565b61011f60025481565b61010d6101f4366004610dc6565b61086e565b600554610162906001600160a01b031681565b6101627f000000000000000000000000000000000000000000000000000000000000000081565b61023b610a0e565b6005546001600160a01b0316158061025d57506005546001600160a01b031633145b610293576040517f5fd8a13200000000000000000000000000000000000000000000000000000000815260040160405180910390fd5b6005546001600160a01b03161580156102e757506102d260187f0000000000000000000000000000000000000000000000000000000000000000610df5565b6102e4906702c68af0bb140000610e17565b81105b156103675761031760187f0000000000000000000000000000000000000000000000000000000000000000610df5565b610329906702c68af0bb140000610e17565b6040517f77b8dde300000000000000000000000000000000000000000000000000000000815260040161035e91815260200190565b60405180910390fd5b60045415610388576040516307ccaad360e21b815260040160405180910390fd5b6103bd6001600160a01b037f000000000000000000000000000000000000000000000000000000000000000016333084610a51565b80600160008282546103cf9190610e17565b90915550506005546001600160a01b031661043557600580547fffffffffffffffffffffffff0000000000000000000000000000000000000000163317905542600355600180546702c68af0bb140000919060009061042f908490610e2a565b90915550505b60408051338152602081018390527fd15c9547ea5c06670c0010ce19bc32d54682a4b3801ece7f3ab0c3f17106b4bb910160405180910390a16104786001600055565b50565b61048433610adf565b565b6000336001600160a01b037f000000000000000000000000000000000000000000000000000000000000000016146104d15760405163be24598360e01b815260040160405180910390fd5b6003546000036104f457604051636f312cbd60e01b815260040160405180910390fd5b6000600454600003610506574261050a565b6004545b905060006003548261051c9190610e2a565b9050600080610e1060186105507f000000000000000000000000000000000000000000000000000000000000000086610e3d565b61055a9190610df5565b6105649190610df5565b90506002546001546105769190610e2a565b8111156105945760025460015461058d9190610e2a565b9150610598565b8091505b509392505050565b6105a8610a0e565b336001600160a01b037f000000000000000000000000000000000000000000000000000000000000000016146105f15760405163be24598360e01b815260040160405180910390fd5b60006105fb610486565b90508181101561062157604051639266535160e01b81526004810182905260240161035e565b610e1061064f60187f0000000000000000000000000000000000000000000000000000000000000000610df5565b6106599190610df5565b8260025460015461066a9190610e2a565b6106749190610e2a565b10156106835761068333610adf565b81600260008282546106959190610e17565b909155505060405163a9059cbb60e01b8152336004820152602481018390527f00000000000000000000000000000000000000000000000000000000000000006001600160a01b03169063a9059cbb906044016020604051808303816000875af1158015610707573d6000803e3d6000fd5b505050506040513d601f19601f8201168201806040525081019061072b9190610e54565b5060408051338152602081018490527fbeab809f862bcac7e41d0cc40843a6c895216194f5e2ec16d9b8e41de89d2794910160405180910390a1506104786001600055565b6005546000906001600160a01b0316158061078b5750600354155b156107a957604051636f312cbd60e01b815260040160405180910390fd5b6005546001600160a01b031633146107d45760405163be24598360e01b815260040160405180910390fd5b60006004546000036107e657426107ea565b6004545b90506000600354826107fc9190610e2a565b90506000610e10601861082f7f000000000000000000000000000000000000000000000000000000000000000085610e3d565b6108399190610df5565b6108439190610df5565b90506001548110610858576000935050505090565b806001546108669190610e2a565b935050505090565b610876610a0e565b6005546001600160a01b031633146108a15760405163be24598360e01b815260040160405180910390fd5b60006108ab610770565b9050818110156108d157604051639266535160e01b81526004810182905260240161035e565b81600160008282546108e39190610e2a565b909155505060405163a9059cbb60e01b8152336004820152602481018390527f00000000000000000000000000000000000000000000000000000000000000006001600160a01b03169063a9059cbb906044016020604051808303816000875af1158015610955573d6000803e3d6000fd5b505050506040513d601f19601f820116820180604052508101906109799190610e54565b5060408051338152602081018490527f7084f5476618d8e60b11ef0d7d3f06914655adb8793e28ff7f018d4c76d505d5910160405180910390a1610e106109e160187f0000000000000000000000000000000000000000000000000000000000000000610df5565b6109eb9190610df5565b6109f58383610e2a565b11610a0357610a0333610adf565b506104786001600055565b600260005403610a4a576040517f3ee5aeb500000000000000000000000000000000000000000000000000000000815260040160405180910390fd5b6002600055565b604080516001600160a01b0385811660248301528416604482015260648082018490528251808303909101815260849091019091526020810180517bffffffffffffffffffffffffffffffffffffffffffffffffffffffff167f23b872dd00000000000000000000000000000000000000000000000000000000179052610ad9908590610bbf565b50505050565b6005546001600160a01b0382811691161480610b2c57507f00000000000000000000000000000000000000000000000000000000000000006001600160a01b0316816001600160a01b0316145b610b495760405163be24598360e01b815260040160405180910390fd5b60045415610b6a576040516307ccaad360e21b815260040160405180910390fd5b426004819055600354600091610b809190610e2a565b90507f65cd0e12bdc2afa1e1eba1853832b1c67e6318096add2681d6e020a7ed1ce8a181604051610bb391815260200190565b60405180910390a15050565b6000610bd46001600160a01b03841683610c40565b90508051600014158015610bf9575080806020019051810190610bf79190610e54565b155b15610c3b576040517f5274afe70000000000000000000000000000000000000000000000000000000081526001600160a01b038416600482015260240161035e565b505050565b6060610c4e83836000610c57565b90505b92915050565b606081471015610c95576040517fcd78605900000000000000000000000000000000000000000000000000000000815230600482015260240161035e565b600080856001600160a01b03168486604051610cb19190610e76565b60006040518083038185875af1925050503d8060008114610cee576040519150601f19603f3d011682016040523d82523d6000602084013e610cf3565b606091505b5091509150610d03868383610d0f565b925050505b9392505050565b606082610d2457610d1f82610d84565b610d08565b8151158015610d3b57506001600160a01b0384163b155b15610d7d576040517f9996b3150000000000000000000000000000000000000000000000000000000081526001600160a01b038516600482015260240161035e565b5080610d08565b805115610d945780518082602001fd5b6040517f1425ea4200000000000000000000000000000000000000000000000000000000815260040160405180910390fd5b600060208284031215610dd857600080fd5b5035919050565b634e487b7160e01b600052601160045260246000fd5b600082610e1257634e487b7160e01b600052601260045260246000fd5b500490565b80820180821115610c5157610c51610ddf565b81810381811115610c5157610c51610ddf565b8082028115828204841417610c5157610c51610ddf565b600060208284031215610e6657600080fd5b81518015158114610d0857600080fd5b6000825160005b81811015610e975760208186018101518583015201610e7d565b50600092019182525091905056fea26469706673582212205b832f12834ce20b67b8df19d4bfafd4de31be0ae9e7949e55ccfe242216dbf664736f6c63430008180033",
  "linkReferences": {},
  "deployedLinkReferences": {}
}