{
  "_format": "hh-sol-artifact-1",
  "contractName": "BCAServiceToken",
  "sourceName": "contracts/BCA_ERC20_nf.sol",
  "abi": [
    {
      "inputs": [
        {
          "internalType": "string",
          "name": "name",
          "type": "string"
        },
        {
          "internalType": "string",
          "name": "symbol",
          "type": "string"
        },
        {
          "internalType": "address",
          "name": "minter",
          "type": "address"
        },
        {
          "internalType": "address",
          "name": "burner",
          "type": "address"
        }
      ],
      "stateMutability": "nonpayable",
      "type": "constructor"
    },
    {
      "inputs": [],
      "name": "AccessControlBadConfirmation",
      "type": "error"
    },
    {
      "inputs": [
        {
          "internalType": "address",
          "name": "account",
          "type": "address"
        },
        {
          "internalType": "bytes32",
          "name": "neededRole",
          "type": "bytes32"
        }
      ],
      "name": "AccessControlUnauthorizedAccount",
      "type": "error"
    },
    {
      "inputs": [
        {
          "internalType": "address",
          "name": "spender",
          "type": "address"
        },
        {
          "internalType": "uint256",
          "name": "allowance",
          "type": "uint256"
        },
        {
          "internalType": "uint256",
          "name": "needed",
          "type": "uint256"
        }
      ],
      "name": "ERC20InsufficientAllowance",
      "type": "error"
    },
    {
      "inputs": [
        {
          "internalType": "address",
          "name": "sender",
          "type": "address"
        },
        {
          "internalType": "uint256",
          "name": "balance",
          "type": "uint256"
        },
        {
          "internalType": "uint256",
          "name": "needed",
          "type": "uint256"
        }
      ],
      "name": "ERC20InsufficientBalance",
      "type": "error"
    },
    {
      "inputs": [
        {
          "internalType": "address",
          "name": "approver",
          "type": "address"
        }
      ],
      "name": "ERC20InvalidApprover",
      "type": "error"
    },
    {
      "inputs": [
        {
          "internalType": "address",
          "name": "receiver",
          "type": "address"
        }
      ],
      "name": "ERC20InvalidReceiver",
      "type": "error"
    },
    {
      "inputs": [
        {
          "internalType": "address",
          "name": "sender",
          "type": "address"
        }
      ],
      "name": "ERC20InvalidSender",
      "type": "error"
    },
    {
      "inputs": [
        {
          "internalType": "address",
          "name": "spender",
          "type": "address"
        }
      ],
      "name": "ERC20InvalidSpender",
      "type": "error"
    },
    {
      "anonymous": false,
      "inputs": [
        {
          "indexed": true,
          "internalType": "address",
          "name": "owner",
          "type": "address"
        },
        {
          "indexed": true,
          "internalType": "address",
          "name": "spender",
          "type": "address"
        },
        {
          "indexed": false,
          "internalType": "uint256",
          "name": "value",
          "type": "uint256"
        }
      ],
      "name": "Approval",
      "type": "event"
    },
    {
      "anonymous": false,
      "inputs": [
        {
          "indexed": true,
          "internalType": "bytes32",
          "name": "role",
          "type": "bytes32"
        },
        {
          "indexed": true,
          "internalType": "bytes32",
          "name": "previousAdminRole",
          "type": "bytes32"
        },
        {
          "indexed": true,
          "internalType": "bytes32",
          "name": "newAdminRole",
          "type": "bytes32"
        }
      ],
      "name": "RoleAdminChanged",
      "type": "event"
    },
    {
      "anonymous": false,
      "inputs": [
        {
          "indexed": true,
          "internalType": "bytes32",
          "name": "role",
          "type": "bytes32"
        },
        {
          "indexed": true,
          "internalType": "address",
          "name": "account",
          "type": "address"
        },
        {
          "indexed": true,
          "internalType": "address",
          "name": "sender",
          "type": "address"
        }
      ],
      "name": "RoleGranted",
      "type": "event"
    },
    {
      "anonymous": false,
      "inputs": [
        {
          "indexed": true,
          "internalType": "bytes32",
          "name": "role",
          "type": "bytes32"
        },
        {
          "indexed": true,
          "internalType": "address",
          "name": "account",
          "type": "address"
        },
        {
          "indexed": true,
          "internalType": "address",
          "name": "sender",
          "type": "address"
        }
      ],
      "name": "RoleRevoked",
      "type": "event"
    },
    {
      "anonymous": false,
      "inputs": [
        {
          "indexed": true,
          "internalType": "address",
          "name": "from",
          "type": "address"
        },
        {
          "indexed": true,
          "internalType": "address",
          "name": "to",
          "type": "address"
        },
        {
          "indexed": false,
          "internalType": "uint256",
          "name": "value",
          "type": "uint256"
        }
      ],
      "name": "Transfer",
      "type": "event"
    },
    {
      "inputs": [],
      "name": "BURNER_ROLE",
      "outputs": [
        {
          "internalType": "bytes32",
          "name": "",
          "type": "bytes32"
        }
      ],
      "stateMutability": "view",
      "type": "function"
    },
    {
      "inputs": [],
      "name": "DEFAULT_ADMIN_ROLE",
      "outputs": [
        {
          "internalType": "bytes32",
          "name": "",
          "type": "bytes32"
        }
      ],
      "stateMutability": "view",
      "type": "function"
    },
    {
      "inputs": [],
      "name": "MINTER_ROLE",
      "outputs": [
        {
          "internalType": "bytes32",
          "name": "",
          "type": "bytes32"
        }
      ],
      "stateMutability": "view",
      "type": "function"
    },
    {
      "inputs": [
        {
          "internalType": "address",
          "name": "owner",
          "type": "address"
        },
        {
          "internalType": "address",
          "name": "spender",
          "type": "address"
        }
      ],
      "name": "allowance",
      "outputs": [
        {
          "internalType": "uint256",
          "name": "",
          "type": "uint256"
        }
      ],
      "stateMutability": "view",
      "type": "function"
    },
    {
      "inputs": [
        {
          "internalType": "address",
          "name": "spender",
          "type": "address"
        },
        {
          "internalType": "uint256",
          "name": "value",
          "type": "uint256"
        }
      ],
      "name": "approve",
      "outputs": [
        {
          "internalType": "bool",
          "name": "",
          "type": "bool"
        }
      ],
      "stateMutability": "nonpayable",
      "type": "function"
    },
    {
      "inputs": [
        {
          "internalType": "address",
          "name": "account",
          "type": "address"
        }
      ],
      "name": "balanceOf",
      "outputs": [
        {
          "internalType": "uint256",
          "name": "",
          "type": "uint256"
        }
      ],
      "stateMutability": "view",
      "type": "function"
    },
    {
      "inputs": [
        {
          "internalType": "address",
          "name": "from",
          "type": "address"
        },
        {
          "internalType": "uint256",
          "name": "amount",
          "type": "uint256"
        }
      ],
      "name": "burn",
      "outputs": [],
      "stateMutability": "nonpayable",
      "type": "function"
    },
    {
      "inputs": [],
      "name": "burnerAddress",
      "outputs": [
        {
          "internalType": "address",
          "name": "",
          "type": "address"
        }
      ],
      "stateMutability": "view",
      "type": "function"
    },
    {
      "inputs": [],
      "name": "decimals",
      "outputs": [
        {
          "internalType": "uint8",
          "name": "",
          "type": "uint8"
        }
      ],
      "stateMutability": "view",
      "type": "function"
    },
    {
      "inputs": [
        {
          "internalType": "bytes32",
          "name": "role",
          "type": "bytes32"
        }
      ],
      "name": "getRoleAdmin",
      "outputs": [
        {
          "internalType": "bytes32",
          "name": "",
          "type": "bytes32"
        }
      ],
      "stateMutability": "view",
      "type": "function"
    },
    {
      "inputs": [
        {
          "internalType": "bytes32",
          "name": "role",
          "type": "bytes32"
        },
        {
          "internalType": "address",
          "name": "account",
          "type": "address"
        }
      ],
      "name": "grantRole",
      "outputs": [],
      "stateMutability": "nonpayable",
      "type": "function"
    },
    {
      "inputs": [
        {
          "internalType": "bytes32",
          "name": "role",
          "type": "bytes32"
        },
        {
          "internalType": "address",
          "name": "account",
          "type": "address"
        }
      ],
      "name": "hasRole",
      "outputs": [
        {
          "internalType": "bool",
          "name": "",
          "type": "bool"
        }
      ],
      "stateMutability": "view",
      "type": "function"
    },
    {
      "inputs": [
        {
          "internalType": "address",
          "name": "to",
          "type": "address"
        },
        {
          "internalType": "uint256",
          "name": "amount",
          "type": "uint256"
        }
      ],
      "name": "mint",
      "outputs": [],
      "stateMutability": "nonpayable",
      "type": "function"
    },
    {
      "inputs": [],
      "name": "minterAddress",
      "outputs": [
        {
          "internalType": "address",
          "name": "",
          "type": "address"
        }
      ],
      "stateMutability": "view",
      "type": "function"
    },
    {
      "inputs": [],
      "name": "name",
      "outputs": [
        {
          "internalType": "string",
          "name": "",
          "type": "string"
        }
      ],
      "stateMutability": "view",
      "type": "function"
    },
    {
      "inputs": [
        {
          "internalType": "bytes32",
          "name": "role",
          "type": "bytes32"
        },
        {
          "internalType": "address",
          "name": "callerConfirmation",
          "type": "address"
        }
      ],
      "name": "renounceRole",
      "outputs": [],
      "stateMutability": "nonpayable",
      "type": "function"
    },
    {
      "inputs": [
        {
          "internalType": "bytes32",
          "name": "role",
          "type": "bytes32"
        },
        {
          "internalType": "address",
          "name": "account",
          "type": "address"
        }
      ],
      "name": "revokeRole",
      "outputs": [],
      "stateMutability": "nonpayable",
      "type": "function"
    },
    {
      "inputs": [],
      "name": "serviceAddress",
      "outputs": [
        {
          "internalType": "address",
          "name": "",
          "type": "address"
        }
      ],
      "stateMutability": "view",
      "type": "function"
    },
    {
      "inputs": [
        {
          "internalType": "address",
          "name": "new_burnerAddress",
          "type": "address"
        }
      ],
      "name": "setBurnerAddress",
      "outputs": [],
      "stateMutability": "nonpayable",
      "type": "function"
    },
    {
      "inputs": [
        {
          "internalType": "address",
          "name": "new_minterAddress",
          "type": "address"
        }
      ],
      "name": "setMinterAddress",
      "outputs": [],
      "stateMutability": "nonpayable",
      "type": "function"
    },
    {
      "inputs": [
        {
          "internalType": "address",
          "name": "new_serviceAddress",
          "type": "address"
        }
      ],
      "name": "setServiceAddress",
      "outputs": [],
      "stateMutability": "nonpayable",
      "type": "function"
    },
    {
      "inputs": [
        {
          "internalType": "bytes4",
          "name": "interfaceId",
          "type": "bytes4"
        }
      ],
      "name": "supportsInterface",
      "outputs": [
        {
          "internalType": "bool",
          "name": "",
          "type": "bool"
        }
      ],
      "stateMutability": "view",
      "type": "function"
    },
    {
      "inputs": [],
      "name": "symbol",
      "outputs": [
        {
          "internalType": "string",
          "name": "",
          "type": "string"
        }
      ],
      "stateMutability": "view",
      "type": "function"
    },
    {
      "inputs": [],
      "name": "totalSupply",
      "outputs": [
        {
          "internalType": "uint256",
          "name": "",
          "type": "uint256"
        }
      ],
      "stateMutability": "view",
      "type": "function"
    },
    {
      "inputs": [
        {
          "internalType": "address",
          "name": "recipient",
          "type": "address"
        },
        {
          "internalType": "uint256",
          "name": "amount",
          "type": "uint256"
        }
      ],
      "name": "transfer",
      "outputs": [
        {
          "internalType": "bool",
          "name": "",
          "type": "bool"
        }
      ],
      "stateMutability": "nonpayable",
      "type": "function"
    },
    {
      "inputs": [
        {
          "internalType": "address",
          "name": "sender",
          "type": "address"
        },
        {
          "internalType": "address",
          "name": "recipient",
          "type": "address"
        },
        {
          "internalType": "uint256",
          "name": "amount",
          "type": "uint256"
        }
      ],
      "name": "transferFrom",
      "outputs": [
        {
          "internalType": "bool",
          "name": "",
          "type": "bool"
        }
      ],
      "stateMutability": "nonpayable",
      "type": "function"
    }
  ],
  "bytecode": "0x60806040523480156200001157600080fd5b50604051620015973803806200159783398101604081905262000034916200029c565b83836003620000448382620003bc565b506004620000538282620003bc565b505060068054336001600160a01b031991821681179092556007805482166001600160a01b0387811691909117909155600880549092169085161790556200009f915060009062000104565b50620000cc7f9f2df0fed2c77648de5860a4cc508cd0818c85b8b8a1ab4ceeef8d981c8956a68362000104565b50620000f97f3c11d16cbaffd01df69ce1c404f6340ee057498f5f00246190ea54220576a8488262000104565b505050505062000488565b60008281526005602090815260408083206001600160a01b038516845290915281205460ff16620001ad5760008381526005602090815260408083206001600160a01b03861684529091529020805460ff19166001179055620001643390565b6001600160a01b0316826001600160a01b0316847f2f8788117e7eff1d82e926ec794901d17c78024a50270940304540a733656f0d60405160405180910390a4506001620001b1565b5060005b92915050565b634e487b7160e01b600052604160045260246000fd5b600082601f830112620001df57600080fd5b81516001600160401b0380821115620001fc57620001fc620001b7565b604051601f8301601f19908116603f01168101908282118183101715620002275762000227620001b7565b81604052838152602092508660208588010111156200024557600080fd5b600091505b838210156200026957858201830151818301840152908201906200024a565b6000602085830101528094505050505092915050565b80516001600160a01b03811681146200029757600080fd5b919050565b60008060008060808587031215620002b357600080fd5b84516001600160401b0380821115620002cb57600080fd5b620002d988838901620001cd565b95506020870151915080821115620002f057600080fd5b50620002ff87828801620001cd565b93505062000310604086016200027f565b915062000320606086016200027f565b905092959194509250565b600181811c908216806200034057607f821691505b6020821081036200036157634e487b7160e01b600052602260045260246000fd5b50919050565b601f821115620003b7576000816000526020600020601f850160051c81016020861015620003925750805b601f850160051c820191505b81811015620003b3578281556001016200039e565b5050505b505050565b81516001600160401b03811115620003d857620003d8620001b7565b620003f081620003e984546200032b565b8462000367565b602080601f8311600181146200042857600084156200040f5750858301515b600019600386901b1c1916600185901b178555620003b3565b600085815260208120601f198616915b82811015620004595788860151825594840194600190910190840162000438565b5085821015620004785787850151600019600388901b60f8161c191681555b5050505050600190811b01905550565b6110ff80620004986000396000f3fe608060405234801561001057600080fd5b50600436106101ae5760003560e01c80638d5b87b6116100ee578063a3106b9511610097578063d547741f11610071578063d547741f146103df578063dd62ed3e146103f2578063e6293e231461042b578063f6e396401461043e57600080fd5b8063a3106b9514610392578063a9059cbb146103a5578063d5391393146103b857600080fd5b80639dc29fac116100c85780639dc29fac146103645780639df806d614610377578063a217fddf1461038a57600080fd5b80638d5b87b61461031057806391d148541461032357806395d89b411461035c57600080fd5b8063282c51f31161015b57806334d722c91161013557806334d722c91461029657806336568abe146102c157806340c10f19146102d457806370a08231146102e757600080fd5b8063282c51f31461024b5780632f2ff15d14610272578063313ce5671461028757600080fd5b806318160ddd1161018c57806318160ddd1461020357806323b872dd14610215578063248a9ca31461022857600080fd5b806301ffc9a7146101b357806306fdde03146101db578063095ea7b3146101f0575b600080fd5b6101c66101c1366004610ed1565b610451565b60405190151581526020015b60405180910390f35b6101e36104ea565b6040516101d29190610f13565b6101c66101fe366004610f7e565b61057c565b6002545b6040519081526020016101d2565b6101c6610223366004610fa8565b610594565b610207610236366004610fe4565b60009081526005602052604090206001015490565b6102077f3c11d16cbaffd01df69ce1c404f6340ee057498f5f00246190ea54220576a84881565b610285610280366004610ffd565b61061d565b005b604051601281526020016101d2565b6007546102a9906001600160a01b031681565b6040516001600160a01b0390911681526020016101d2565b6102856102cf366004610ffd565b610648565b6102856102e2366004610f7e565b610699565b6102076102f5366004611029565b6001600160a01b031660009081526020819052604090205490565b6006546102a9906001600160a01b031681565b6101c6610331366004610ffd565b60009182526005602090815260408084206001600160a01b0393909316845291905290205460ff1690565b6101e36106cd565b610285610372366004610f7e565b6106dc565b610285610385366004611029565b610710565b610207600081565b6102856103a0366004611029565b6107a5565b6101c66103b3366004610f7e565b61083a565b6102077f9f2df0fed2c77648de5860a4cc508cd0818c85b8b8a1ab4ceeef8d981c8956a681565b6102856103ed366004610ffd565b6108bc565b610207610400366004611044565b6001600160a01b03918216600090815260016020908152604080832093909416825291909152205490565b6008546102a9906001600160a01b031681565b61028561044c366004611029565b6108e1565b60007fffffffff0000000000000000000000000000000000000000000000000000000082167f7965db0b0000000000000000000000000000000000000000000000000000000014806104e457507f01ffc9a7000000000000000000000000000000000000000000000000000000007fffffffff000000000000000000000000000000000000000000000000000000008316145b92915050565b6060600380546104f99061106e565b80601f01602080910402602001604051908101604052809291908181526020018280546105259061106e565b80156105725780601f1061054757610100808354040283529160200191610572565b820191906000526020600020905b81548152906001019060200180831161055557829003601f168201915b5050505050905090565b60003361058a818585610938565b5060019392505050565b6006546000906001600160a01b0384811691161461060a5760405162461bcd60e51b815260206004820152602860248201527f5472616e73666572206f6e6c7920616c6c6f77656420746f2073657276696365604482015267206164647265737360c01b60648201526084015b60405180910390fd5b610615848484610945565b949350505050565b60008281526005602052604090206001015461063881610969565b6106428383610976565b50505050565b6001600160a01b038116331461068a576040517f6697b23200000000000000000000000000000000000000000000000000000000815260040160405180910390fd5b6106948282610a24565b505050565b7f9f2df0fed2c77648de5860a4cc508cd0818c85b8b8a1ab4ceeef8d981c8956a66106c381610969565b6106948383610aab565b6060600480546104f99061106e565b7f3c11d16cbaffd01df69ce1c404f6340ee057498f5f00246190ea54220576a84861070681610969565b6106948383610ae5565b600061071b81610969565b600854610752907f3c11d16cbaffd01df69ce1c404f6340ee057498f5f00246190ea54220576a848906001600160a01b0316610a24565b506008805473ffffffffffffffffffffffffffffffffffffffff19166001600160a01b0384161790556106947f3c11d16cbaffd01df69ce1c404f6340ee057498f5f00246190ea54220576a84883610976565b60006107b081610969565b6007546107e7907f9f2df0fed2c77648de5860a4cc508cd0818c85b8b8a1ab4ceeef8d981c8956a6906001600160a01b0316610a24565b506007805473ffffffffffffffffffffffffffffffffffffffff19166001600160a01b0384161790556106947f9f2df0fed2c77648de5860a4cc508cd0818c85b8b8a1ab4ceeef8d981c8956a683610976565b6006546000906001600160a01b038481169116146108ab5760405162461bcd60e51b815260206004820152602860248201527f5472616e73666572206f6e6c7920616c6c6f77656420746f2073657276696365604482015267206164647265737360c01b6064820152608401610601565b6108b58383610b1b565b9392505050565b6000828152600560205260409020600101546108d781610969565b6106428383610a24565b60006108ec81610969565b600654610904906000906001600160a01b0316610a24565b506006805473ffffffffffffffffffffffffffffffffffffffff19166001600160a01b038416179055610694600083610976565b6106948383836001610b29565b600033610953858285610c30565b61095e858585610cc1565b506001949350505050565b6109738133610d20565b50565b60008281526005602090815260408083206001600160a01b038516845290915281205460ff16610a1c5760008381526005602090815260408083206001600160a01b03861684529091529020805460ff191660011790556109d43390565b6001600160a01b0316826001600160a01b0316847f2f8788117e7eff1d82e926ec794901d17c78024a50270940304540a733656f0d60405160405180910390a45060016104e4565b5060006104e4565b60008281526005602090815260408083206001600160a01b038516845290915281205460ff1615610a1c5760008381526005602090815260408083206001600160a01b0386168085529252808320805460ff1916905551339286917ff6391f5c32d9c69d2a47ea670b442974b53935d1edc7fd64eb21e047a839171b9190a45060016104e4565b6001600160a01b038216610ad55760405163ec442f0560e01b815260006004820152602401610601565b610ae160008383610d8e565b5050565b6001600160a01b038216610b0f57604051634b637e8f60e11b815260006004820152602401610601565b610ae182600083610d8e565b60003361058a818585610cc1565b6001600160a01b038416610b6c576040517fe602df0500000000000000000000000000000000000000000000000000000000815260006004820152602401610601565b6001600160a01b038316610baf576040517f94280d6200000000000000000000000000000000000000000000000000000000815260006004820152602401610601565b6001600160a01b038085166000908152600160209081526040808320938716835292905220829055801561064257826001600160a01b0316846001600160a01b03167f8c5be1e5ebec7d5bd14f71427d1e84f3dd0314c0f7b2291e5b200ac8c7c3b92584604051610c2291815260200190565b60405180910390a350505050565b6001600160a01b0383811660009081526001602090815260408083209386168352929052205460001981146106425781811015610cb2576040517ffb8f41b20000000000000000000000000000000000000000000000000000000081526001600160a01b03841660048201526024810182905260448101839052606401610601565b61064284848484036000610b29565b6001600160a01b038316610ceb57604051634b637e8f60e11b815260006004820152602401610601565b6001600160a01b038216610d155760405163ec442f0560e01b815260006004820152602401610601565b610694838383610d8e565b60008281526005602090815260408083206001600160a01b038516845290915290205460ff16610ae1576040517fe2517d3f0000000000000000000000000000000000000000000000000000000081526001600160a01b038216600482015260248101839052604401610601565b6001600160a01b038316610db9578060026000828254610dae91906110a8565b90915550610e449050565b6001600160a01b03831660009081526020819052604090205481811015610e25576040517fe450d38c0000000000000000000000000000000000000000000000000000000081526001600160a01b03851660048201526024810182905260448101839052606401610601565b6001600160a01b03841660009081526020819052604090209082900390555b6001600160a01b038216610e6057600280548290039055610e7f565b6001600160a01b03821660009081526020819052604090208054820190555b816001600160a01b0316836001600160a01b03167fddf252ad1be2c89b69c2b068fc378daa952ba7f163c4a11628f55a4df523b3ef83604051610ec491815260200190565b60405180910390a3505050565b600060208284031215610ee357600080fd5b81357fffffffff00000000000000000000000000000000000000000000000000000000811681146108b557600080fd5b60006020808352835180602085015260005b81811015610f4157858101830151858201604001528201610f25565b506000604082860101526040601f19601f8301168501019250505092915050565b80356001600160a01b0381168114610f7957600080fd5b919050565b60008060408385031215610f9157600080fd5b610f9a83610f62565b946020939093013593505050565b600080600060608486031215610fbd57600080fd5b610fc684610f62565b9250610fd460208501610f62565b9150604084013590509250925092565b600060208284031215610ff657600080fd5b5035919050565b6000806040838503121561101057600080fd5b8235915061102060208401610f62565b90509250929050565b60006020828403121561103b57600080fd5b6108b582610f62565b6000806040838503121561105757600080fd5b61106083610f62565b915061102060208401610f62565b600181811c9082168061108257607f821691505b6020821081036110a257634e487b7160e01b600052602260045260246000fd5b50919050565b808201808211156104e457634e487b7160e01b600052601160045260246000fdfea264697066735822122052f38641e067af35890f1c819e3631a4d29febf76565fac915d46408e53fb15c64736f6c63430008180033",
  "linkReferences": {},
  "deployedLinkReferences": {}
}